{
  "contractName": "StkToken",
  "abi": [
    {
      "inputs": [],
      "payable": false,
      "stateMutability": "nonpayable",
      "type": "constructor"
    },
    {
      "constant": true,
      "inputs": [],
      "name": "totalSupply",
      "outputs": [
        {
          "internalType": "uint256",
          "name": "",
          "type": "uint256"
        }
      ],
      "payable": false,
      "stateMutability": "view",
      "type": "function"
    }
  ],
  "bytecode": "0x6080604052348015600f57600080fd5b50620f42406000819055506084806100286000396000f3fe6080604052348015600f57600080fd5b506004361060285760003560e01c806318160ddd14602d575b600080fd5b60336049565b6040518082815260200191505060405180910390f35b6000548156fea265627a7a72315820137a977568b37e5bc33d3ac6b394b754eb34f52abd49da611664edd9bc41f67064736f6c63430005100032",
  "source": "// define ver of solidity\r\npragma solidity >=0.4.21 <0.7.0;\r\n\r\n// refer to ERC-20 token standard\r\n\r\ncontract StkToken {\r\n    // Constructor - run whenever smart contract deployed\r\n    // Set total num of tokens\r\n    // read total num of tokens\r\n\r\n    // unsigned public int\r\n    // the public visibility auto adds a getter func to this var\r\n    uint256 public totalSupply;\r\n\r\n    constructor() public{\r\n        // num of tokens that will exist\r\n        // state var - kinda like a class var in other lang\r\n        totalSupply = 1000000;\r\n    }\r\n}",
  "sourcePath": "C:\\Users\\asien\\Downloads\\ETH Test\\token_sale\\contracts\\StkToken.sol",
  "compiler": {
    "name": "solc",
    "version": "0.5.16+commit.9c3226ce.Emscripten.clang"
  },
  "schemaVersion": "3.2.0",
  "updatedAt": "2020-06-28T16:21:35.649Z",
  "networkType": "ethereum",
  "devdoc": {
    "methods": {}
  },
  "userdoc": {
    "methods": {}
  }
}